{
    "abi": [
        {
            "type": "constructor",
            "inputs": [
                {
                    "name": "tokenAddress",
                    "type": "address[]",
                    "internalType": "address[]"
                },
                {
                    "name": "priceFeedAddress",
                    "type": "address[]",
                    "internalType": "address[]"
                },
                {
                    "name": "dscAddress",
                    "type": "address",
                    "internalType": "address"
                }
            ],
            "stateMutability": "nonpayable"
        },
        {
            "type": "receive",
            "stateMutability": "payable"
        },
        {
            "type": "function",
            "name": "UNISWAP_ROUTER",
            "inputs": [],
            "outputs": [
                {
                    "name": "",
                    "type": "address",
                    "internalType": "address"
                }
            ],
            "stateMutability": "view"
        },
        {
            "type": "function",
            "name": "USDC",
            "inputs": [],
            "outputs": [
                {
                    "name": "",
                    "type": "address",
                    "internalType": "address"
                }
            ],
            "stateMutability": "view"
        },
        {
            "type": "function",
            "name": "WETH",
            "inputs": [],
            "outputs": [
                {
                    "name": "",
                    "type": "address",
                    "internalType": "address"
                }
            ],
            "stateMutability": "view"
        },
        {
            "type": "function",
            "name": "burnDSC",
            "inputs": [
                {
                    "name": "amount",
                    "type": "uint256",
                    "internalType": "uint256"
                }
            ],
            "outputs": [],
            "stateMutability": "nonpayable"
        },
        {
            "type": "function",
            "name": "calculateHealthFactor",
            "inputs": [
                {
                    "name": "totalDSCMinted",
                    "type": "uint256",
                    "internalType": "uint256"
                },
                {
                    "name": "collateralValueInUSD",
                    "type": "uint256",
                    "internalType": "uint256"
                }
            ],
            "outputs": [
                {
                    "name": "",
                    "type": "uint256",
                    "internalType": "uint256"
                }
            ],
            "stateMutability": "pure"
        },
        {
            "type": "function",
            "name": "depositCollateral",
            "inputs": [
                {
                    "name": "tokenCollateralAddress",
                    "type": "address",
                    "internalType": "address"
                },
                {
                    "name": "amountCollateral",
                    "type": "uint256",
                    "internalType": "uint256"
                }
            ],
            "outputs": [],
            "stateMutability": "nonpayable"
        },
        {
            "type": "function",
            "name": "depositCollateralAndMintDSC",
            "inputs": [
                {
                    "name": "tokenCollateralAddress",
                    "type": "address",
                    "internalType": "address"
                },
                {
                    "name": "amountCollateral",
                    "type": "uint256",
                    "internalType": "uint256"
                },
                {
                    "name": "amountDscTOMint",
                    "type": "uint256",
                    "internalType": "uint256"
                }
            ],
            "outputs": [],
            "stateMutability": "nonpayable"
        },
        {
            "type": "function",
            "name": "depositETHOnly",
            "inputs": [],
            "outputs": [],
            "stateMutability": "payable"
        },
        {
            "type": "function",
            "name": "getAccountCollateralValue",
            "inputs": [
                {
                    "name": "user",
                    "type": "address",
                    "internalType": "address"
                }
            ],
            "outputs": [
                {
                    "name": "totalCollateralValueInUSD",
                    "type": "uint256",
                    "internalType": "uint256"
                }
            ],
            "stateMutability": "view"
        },
        {
            "type": "function",
            "name": "getAccountInfo",
            "inputs": [
                {
                    "name": "user",
                    "type": "address",
                    "internalType": "address"
                }
            ],
            "outputs": [
                {
                    "name": "totalDSCMinted",
                    "type": "uint256",
                    "internalType": "uint256"
                },
                {
                    "name": "collateralValueInUSD",
                    "type": "uint256",
                    "internalType": "uint256"
                }
            ],
            "stateMutability": "view"
        },
        {
            "type": "function",
            "name": "getAccountInformation",
            "inputs": [
                {
                    "name": "user",
                    "type": "address",
                    "internalType": "address"
                }
            ],
            "outputs": [
                {
                    "name": "totalDSCMinted",
                    "type": "uint256",
                    "internalType": "uint256"
                },
                {
                    "name": "collateralValueInUSD",
                    "type": "uint256",
                    "internalType": "uint256"
                }
            ],
            "stateMutability": "view"
        },
        {
            "type": "function",
            "name": "getAdditionalFeedPrecision",
            "inputs": [],
            "outputs": [
                {
                    "name": "",
                    "type": "uint256",
                    "internalType": "uint256"
                }
            ],
            "stateMutability": "pure"
        },
        {
            "type": "function",
            "name": "getCollateralBalanceOfUser",
            "inputs": [
                {
                    "name": "user",
                    "type": "address",
                    "internalType": "address"
                },
                {
                    "name": "token",
                    "type": "address",
                    "internalType": "address"
                }
            ],
            "outputs": [
                {
                    "name": "",
                    "type": "uint256",
                    "internalType": "uint256"
                }
            ],
            "stateMutability": "view"
        },
        {
            "type": "function",
            "name": "getCollateralTokenPriceFeed",
            "inputs": [
                {
                    "name": "token",
                    "type": "address",
                    "internalType": "address"
                }
            ],
            "outputs": [
                {
                    "name": "",
                    "type": "address",
                    "internalType": "address"
                }
            ],
            "stateMutability": "view"
        },
        {
            "type": "function",
            "name": "getCollateralTokens",
            "inputs": [],
            "outputs": [
                {
                    "name": "",
                    "type": "address[]",
                    "internalType": "address[]"
                }
            ],
            "stateMutability": "view"
        },
        {
            "type": "function",
            "name": "getDSC",
            "inputs": [],
            "outputs": [
                {
                    "name": "",
                    "type": "address",
                    "internalType": "address"
                }
            ],
            "stateMutability": "view"
        },
        {
            "type": "function",
            "name": "getETHPriceInUSD",
            "inputs": [],
            "outputs": [
                {
                    "name": "",
                    "type": "uint256",
                    "internalType": "uint256"
                }
            ],
            "stateMutability": "view"
        },
        {
            "type": "function",
            "name": "getETHRequiredForDSCRepayment",
            "inputs": [
                {
                    "name": "dscAmount",
                    "type": "uint256",
                    "internalType": "uint256"
                }
            ],
            "outputs": [
                {
                    "name": "ethNeeded",
                    "type": "uint256",
                    "internalType": "uint256"
                }
            ],
            "stateMutability": "view"
        },
        {
            "type": "function",
            "name": "getHealthFactor",
            "inputs": [
                {
                    "name": "user",
                    "type": "address",
                    "internalType": "address"
                }
            ],
            "outputs": [
                {
                    "name": "",
                    "type": "uint256",
                    "internalType": "uint256"
                }
            ],
            "stateMutability": "view"
        },
        {
            "type": "function",
            "name": "getMaxMintableAmount",
            "inputs": [
                {
                    "name": "user",
                    "type": "address",
                    "internalType": "address"
                }
            ],
            "outputs": [
                {
                    "name": "maxMintable",
                    "type": "uint256",
                    "internalType": "uint256"
                }
            ],
            "stateMutability": "view"
        },
        {
            "type": "function",
            "name": "getMinHealthFactor",
            "inputs": [],
            "outputs": [
                {
                    "name": "",
                    "type": "uint256",
                    "internalType": "uint256"
                }
            ],
            "stateMutability": "pure"
        },
        {
            "type": "function",
            "name": "getPrecision",
            "inputs": [],
            "outputs": [
                {
                    "name": "",
                    "type": "uint256",
                    "internalType": "uint256"
                }
            ],
            "stateMutability": "pure"
        },
        {
            "type": "function",
            "name": "getTokenAmountFromUSD",
            "inputs": [
                {
                    "name": "token",
                    "type": "address",
                    "internalType": "address"
                },
                {
                    "name": "usdAmountInWei",
                    "type": "uint256",
                    "internalType": "uint256"
                }
            ],
            "outputs": [
                {
                    "name": "",
                    "type": "uint256",
                    "internalType": "uint256"
                }
            ],
            "stateMutability": "view"
        },
        {
            "type": "function",
            "name": "getUSDValue",
            "inputs": [
                {
                    "name": "token",
                    "type": "address",
                    "internalType": "address"
                },
                {
                    "name": "amount",
                    "type": "uint256",
                    "internalType": "uint256"
                }
            ],
            "outputs": [
                {
                    "name": "",
                    "type": "uint256",
                    "internalType": "uint256"
                }
            ],
            "stateMutability": "view"
        },
        {
            "type": "function",
            "name": "getliquidationBonus",
            "inputs": [],
            "outputs": [
                {
                    "name": "",
                    "type": "uint256",
                    "internalType": "uint256"
                }
            ],
            "stateMutability": "pure"
        },
        {
            "type": "function",
            "name": "getliquidationPercision",
            "inputs": [],
            "outputs": [
                {
                    "name": "",
                    "type": "uint256",
                    "internalType": "uint256"
                }
            ],
            "stateMutability": "pure"
        },
        {
            "type": "function",
            "name": "getliquidationThershold",
            "inputs": [],
            "outputs": [
                {
                    "name": "",
                    "type": "uint256",
                    "internalType": "uint256"
                }
            ],
            "stateMutability": "pure"
        },
        {
            "type": "function",
            "name": "liquidate",
            "inputs": [
                {
                    "name": "collateral",
                    "type": "address",
                    "internalType": "address"
                },
                {
                    "name": "user",
                    "type": "address",
                    "internalType": "address"
                },
                {
                    "name": "debtToCover",
                    "type": "uint256",
                    "internalType": "uint256"
                }
            ],
            "outputs": [],
            "stateMutability": "nonpayable"
        },
        {
            "type": "function",
            "name": "mintDSC",
            "inputs": [
                {
                    "name": "amountDSCToMint",
                    "type": "uint256",
                    "internalType": "uint256"
                }
            ],
            "outputs": [],
            "stateMutability": "nonpayable"
        },
        {
            "type": "function",
            "name": "redeemCollateral",
            "inputs": [
                {
                    "name": "tokenCollateralAddress",
                    "type": "address",
                    "internalType": "address"
                },
                {
                    "name": "amountCollateral",
                    "type": "uint256",
                    "internalType": "uint256"
                }
            ],
            "outputs": [],
            "stateMutability": "nonpayable"
        },
        {
            "type": "function",
            "name": "redeemCollateralForDSC",
            "inputs": [
                {
                    "name": "tokenCollateralAddress",
                    "type": "address",
                    "internalType": "address"
                },
                {
                    "name": "amountCollateral",
                    "type": "uint256",
                    "internalType": "uint256"
                },
                {
                    "name": "amountDscToBurn",
                    "type": "uint256",
                    "internalType": "uint256"
                }
            ],
            "outputs": [],
            "stateMutability": "nonpayable"
        },
        {
            "type": "function",
            "name": "repayDSCWithETH",
            "inputs": [
                {
                    "name": "dscAmountToRepay",
                    "type": "uint256",
                    "internalType": "uint256"
                }
            ],
            "outputs": [],
            "stateMutability": "payable"
        },
        {
            "type": "function",
            "name": "repayDSCWithETHDirect",
            "inputs": [
                {
                    "name": "dscAmountToRepay",
                    "type": "uint256",
                    "internalType": "uint256"
                }
            ],
            "outputs": [],
            "stateMutability": "payable"
        },
        {
            "type": "event",
            "name": "CollateralDeposited",
            "inputs": [
                {
                    "name": "user",
                    "type": "address",
                    "indexed": true,
                    "internalType": "address"
                },
                {
                    "name": "token",
                    "type": "address",
                    "indexed": true,
                    "internalType": "address"
                },
                {
                    "name": "amount",
                    "type": "uint256",
                    "indexed": false,
                    "internalType": "uint256"
                }
            ],
            "anonymous": false
        },
        {
            "type": "event",
            "name": "CollateralRedeemed",
            "inputs": [
                {
                    "name": "redeemedFrom",
                    "type": "address",
                    "indexed": true,
                    "internalType": "address"
                },
                {
                    "name": "redeemTo",
                    "type": "address",
                    "indexed": true,
                    "internalType": "address"
                },
                {
                    "name": "token",
                    "type": "address",
                    "indexed": true,
                    "internalType": "address"
                },
                {
                    "name": "amount",
                    "type": "uint256",
                    "indexed": false,
                    "internalType": "uint256"
                }
            ],
            "anonymous": false
        },
        {
            "type": "error",
            "name": "DSCEngine__BreaksHealthFactor",
            "inputs": [
                {
                    "name": "healthFactor",
                    "type": "uint256",
                    "internalType": "uint256"
                }
            ]
        },
        {
            "type": "error",
            "name": "DSCEngine__HealthFactorNotImproved",
            "inputs": []
        },
        {
            "type": "error",
            "name": "DSCEngine__HealthFactorOk",
            "inputs": []
        },
        {
            "type": "error",
            "name": "DSCEngine__InsufficientDebt",
            "inputs": []
        },
        {
            "type": "error",
            "name": "DSCEngine__InsufficientETHSent",
            "inputs": []
        },
        {
            "type": "error",
            "name": "DSCEngine__MintFailed",
            "inputs": []
        },
        {
            "type": "error",
            "name": "DSCEngine__NeedsMoreThanZero",
            "inputs": []
        },
        {
            "type": "error",
            "name": "DSCEngine__NotAllowedToken",
            "inputs": []
        },
        {
            "type": "error",
            "name": "DSCEngine__TokenAddressAndPriceFeedAddressMustBeSameLength",
            "inputs": []
        },
        {
            "type": "error",
            "name": "DSCEngine__TransferFailed",
            "inputs": []
        },
        {
            "type": "error",
            "name": "ReentrancyGuardReentrantCall",
            "inputs": []
        }
    ],
    "bytecode": {
        "object": "0x60a060405234801562000010575f80fd5b506040516200365b3803806200365b83398181016040528101906200003691906200043b565b6001620000586200004c6200022b60201b60201c565b6200025460201b60201c565b5f018190555081518351146200009a576040517ff7fa022b00000000000000000000000000000000000000000000000000000000815260040160405180910390fd5b5f5b8351811015620001ed57828181518110620000bc57620000bb620004d2565b5b60200260200101515f80868481518110620000dc57620000db620004d2565b5b602002602001015173ffffffffffffffffffffffffffffffffffffffff1673ffffffffffffffffffffffffffffffffffffffff1681526020019081526020015f205f6101000a81548173ffffffffffffffffffffffffffffffffffffffff021916908373ffffffffffffffffffffffffffffffffffffffff1602179055506003848281518110620001725762000171620004d2565b5b6020026020010151908060018154018082558091505060019003905f5260205f20015f9091909190916101000a81548173ffffffffffffffffffffffffffffffffffffffff021916908373ffffffffffffffffffffffffffffffffffffffff1602179055508080620001e49062000535565b9150506200009c565b508073ffffffffffffffffffffffffffffffffffffffff1660808173ffffffffffffffffffffffffffffffffffffffff168152505050505062000581565b5f7f9b779b17422d0df92223018b32b4d1fa46e071723d6817e2486d003becc55f005f1b905090565b5f819050919050565b5f604051905090565b5f80fd5b5f80fd5b5f80fd5b5f601f19601f8301169050919050565b7f4e487b71000000000000000000000000000000000000000000000000000000005f52604160045260245ffd5b620002ba8262000272565b810181811067ffffffffffffffff82111715620002dc57620002db62000282565b5b80604052505050565b5f620002f06200025d565b9050620002fe8282620002af565b919050565b5f67ffffffffffffffff82111562000320576200031f62000282565b5b602082029050602081019050919050565b5f80fd5b5f73ffffffffffffffffffffffffffffffffffffffff82169050919050565b5f620003608262000335565b9050919050565b620003728162000354565b81146200037d575f80fd5b50565b5f81519050620003908162000367565b92915050565b5f620003ac620003a68462000303565b620002e5565b90508083825260208201905060208402830185811115620003d257620003d162000331565b5b835b81811015620003ff5780620003ea888262000380565b845260208401935050602081019050620003d4565b5050509392505050565b5f82601f83011262000420576200041f6200026e565b5b81516200043284826020860162000396565b91505092915050565b5f805f6060848603121562000455576200045462000266565b5b5f84015167ffffffffffffffff8111156200047557620004746200026a565b5b620004838682870162000409565b935050602084015167ffffffffffffffff811115620004a757620004a66200026a565b5b620004b58682870162000409565b9250506040620004c88682870162000380565b9150509250925092565b7f4e487b71000000000000000000000000000000000000000000000000000000005f52603260045260245ffd5b7f4e487b71000000000000000000000000000000000000000000000000000000005f52601160045260245ffd5b5f819050919050565b5f62000541826200052c565b91507fffffffffffffffffffffffffffffffffffffffffffffffffffffffffffffffff8203620005765762000575620004ff565b5b600182019050919050565b6080516130ac620005af5f395f8181610ca80152818161185301528181611dc80152611e9e01526130ac5ff3fe6080604052600436106101f1575f3560e01c80638207c5481161010c578063ad5c46481161009f578063d82649201161006e578063d8264920146106fc578063d8e42fc314610726578063dd1e864714610750578063fa76dcf21461076c578063fe6bcd7c146107a8576101f8565b8063ad5c464814610656578063b58eb63f14610680578063b62e3c5a146106aa578063d0bb6c6e146106d4576101f8565b80639670c0bc116100db5780639670c0bc146105b25780639acd81b3146105dc578063a5d5db0c14610604578063a82f713f1461062c576101f8565b80638207c5481461051857806389a30271146105345780638c1ae6c81461055e5780638f63d66714610588576101f8565b80632a42259711610184578063638ca89c11610153578063638ca89c146104265780637b510fe8146104625780637be564fc1461049f5780637d1a4450146104dc576101f8565b80632a4225971461035c57806331e92b83146103865780633407f7bc146103c25780634c1697b1146103fe576101f8565b806322b72c1b116101c057806322b72c1b146102d85780632575a367146102e257806326c013031461030a57806326d62dff14610332576101f8565b806301f72884146101fc5780630ebf956d146102385780631c08adda14610260578063208a59051461029c576101f8565b366101f857005b5f80fd5b348015610207575f80fd5b50610222600480360381019061021d9190612656565b6107e4565b60405161022f91906126a3565b60405180910390f35b348015610243575f80fd5b5061025e60048036038101906102599190612716565b6107f7565b005b34801561026b575f80fd5b5061028660048036038101906102819190612766565b610919565b60405161029391906127a0565b60405180910390f35b3480156102a7575f80fd5b506102c260048036038101906102bd9190612766565b61097d565b6040516102cf91906126a3565b60405180910390f35b6102e0610a0e565b005b3480156102ed575f80fd5b5061030860048036038101906103039190612716565b610b4e565b005b348015610315575f80fd5b50610330600480360381019061032b91906127b9565b610b66565b005b34801561033d575f80fd5b50610346610ca5565b60405161035391906127a0565b60405180910390f35b348015610367575f80fd5b50610370610ccc565b60405161037d91906126a3565b60405180910390f35b348015610391575f80fd5b506103ac60048036038101906103a79190612809565b610cd4565b6040516103b991906126a3565b60405180910390f35b3480156103cd575f80fd5b506103e860048036038101906103e39190612847565b610d56565b6040516103f591906126a3565b60405180910390f35b348015610409575f80fd5b50610424600480360381019061041f9190612847565b610da6565b005b348015610431575f80fd5b5061044c60048036038101906104479190612872565b610df8565b60405161045991906126a3565b60405180910390f35b34801561046d575f80fd5b5061048860048036038101906104839190612766565b610f05565b6040516104969291906128b0565b60405180910390f35b3480156104aa575f80fd5b506104c560048036038101906104c09190612766565b610f1d565b6040516104d39291906128b0565b60405180910390f35b3480156104e7575f80fd5b5061050260048036038101906104fd9190612766565b610f31565b60405161050f91906126a3565b60405180910390f35b610532600480360381019061052d9190612847565b6110f5565b005b34801561053f575f80fd5b50610548611397565b60405161055591906127a0565b60405180910390f35b348015610569575f80fd5b506105726113af565b60405161057f91906126a3565b60405180910390f35b348015610593575f80fd5b5061059c6113be565b6040516105a991906126a3565b60405180910390f35b3480156105bd575f80fd5b506105c66113ca565b6040516105d391906126a3565b60405180910390f35b3480156105e7575f80fd5b5061060260048036038101906105fd9190612872565b6113d9565b005b34801561060f575f80fd5b5061062a60048036038101906106259190612872565b61143d565b005b348015610637575f80fd5b506106406116f9565b60405161064d91906126a3565b60405180910390f35b348015610661575f80fd5b5061066a611701565b60405161067791906127a0565b60405180910390f35b34801561068b575f80fd5b50610694611719565b6040516106a1919061298e565b60405180910390f35b3480156106b5575f80fd5b506106be6117a4565b6040516106cb91906126a3565b60405180910390f35b3480156106df575f80fd5b506106fa60048036038101906106f59190612847565b6117b2565b005b348015610707575f80fd5b50610710611932565b60405161071d91906127a0565b60405180910390f35b348015610731575f80fd5b5061073a61194a565b60405161074791906126a3565b60405180910390f35b61076a60048036038101906107659190612847565b611952565b005b348015610777575f80fd5b50610792600480360381019061078d9190612872565b611cd9565b60405161079f91906126a3565b60405180910390f35b3480156107b3575f80fd5b506107ce60048036038101906107c99190612766565b611cec565b6040516107db91906126a3565b60405180910390f35b5f6107ef8383611cfd565b905092915050565b815f8103610831576040517fcb1d3f7d00000000000000000000000000000000000000000000000000000000815260040160405180910390fd5b835f73ffffffffffffffffffffffffffffffffffffffff165f808373ffffffffffffffffffffffffffffffffffffffff1673ffffffffffffffffffffffffffffffffffffffff1681526020019081526020015f205f9054906101000a900473ffffffffffffffffffffffffffffffffffffffff1673ffffffffffffffffffffffffffffffffffffffff16036108f2576040517fa802cfbe00000000000000000000000000000000000000000000000000000000815260040160405180910390fd5b6108fd833333611d72565b61090933338787611f28565b610912336121c7565b5050505050565b5f805f8373ffffffffffffffffffffffffffffffffffffffff1673ffffffffffffffffffffffffffffffffffffffff1681526020019081526020015f205f9054906101000a900473ffffffffffffffffffffffffffffffffffffffff169050919050565b5f8061098883610f31565b90505f60025f8573ffffffffffffffffffffffffffffffffffffffff1673ffffffffffffffffffffffffffffffffffffffff1681526020019081526020015f205490505f60646032846109db91906129db565b6109e59190612a49565b905081811115610a025781816109fb9190612a79565b9350610a06565b5f93505b505050919050565b345f8103610a48576040517fcb1d3f7d00000000000000000000000000000000000000000000000000000000815260040160405180910390fd5b610a50612224565b3460015f3373ffffffffffffffffffffffffffffffffffffffff1673ffffffffffffffffffffffffffffffffffffffff1681526020019081526020015f205f8073ffffffffffffffffffffffffffffffffffffffff1673ffffffffffffffffffffffffffffffffffffffff1681526020019081526020015f205f828254610ad79190612aac565b925050819055505f73ffffffffffffffffffffffffffffffffffffffff163373ffffffffffffffffffffffffffffffffffffffff167ff1c0dd7e9b98bbff859029005ef89b127af049cd18df1a8d79f0b7e019911e5634604051610b3b91906126a3565b60405180910390a3610b4b612246565b50565b610b58838361143d565b610b61816117b2565b505050565b805f8103610ba0576040517fcb1d3f7d00000000000000000000000000000000000000000000000000000000815260040160405180910390fd5b610ba8612224565b5f610bb284612260565b9050670de0b6b3a76400008110610bf5576040517f32c072f000000000000000000000000000000000000000000000000000000000815260040160405180910390fd5b5f610c008685610df8565b90505f6064600a83610c1291906129db565b610c1c9190612a49565b90505f8183610c2b9190612aac565b9050610c3987338a84611f28565b610c44868833611d72565b5f610c4e88612260565b9050848111610c89576040517f7c28362000000000000000000000000000000000000000000000000000000000815260040160405180910390fd5b610c92336121c7565b5050505050610c9f612246565b50505050565b5f7f0000000000000000000000000000000000000000000000000000000000000000905090565b5f6064905090565b5f60015f8473ffffffffffffffffffffffffffffffffffffffff1673ffffffffffffffffffffffffffffffffffffffff1681526020019081526020015f205f8373ffffffffffffffffffffffffffffffffffffffff1673ffffffffffffffffffffffffffffffffffffffff1681526020019081526020015f2054905092915050565b5f80610d60612283565b90505f81670de0b6b3a764000085610d7891906129db565b610d829190612a49565b90506064606982610d9391906129db565b610d9d9190612a49565b92505050919050565b805f8103610de0576040517fcb1d3f7d00000000000000000000000000000000000000000000000000000000815260040160405180910390fd5b610deb823333611d72565b610df4336121c7565b5050565b5f805f808573ffffffffffffffffffffffffffffffffffffffff1673ffffffffffffffffffffffffffffffffffffffff1681526020019081526020015f205f9054906101000a900473ffffffffffffffffffffffffffffffffffffffff1690505f8173ffffffffffffffffffffffffffffffffffffffff1663feaf968c6040518163ffffffff1660e01b815260040160a060405180830381865afa158015610ea2573d5f803e3d5ffd5b505050506040513d601f19601f82011682018060405250810190610ec69190612b65565b5050509150506402540be40081610edd91906129db565b670de0b6b3a764000085610ef191906129db565b610efb9190612a49565b9250505092915050565b5f80610f1083612424565b8092508193505050915091565b5f80610f2883612424565b91509150915091565b5f8060015f8473ffffffffffffffffffffffffffffffffffffffff1673ffffffffffffffffffffffffffffffffffffffff1681526020019081526020015f205f8073ffffffffffffffffffffffffffffffffffffffff1673ffffffffffffffffffffffffffffffffffffffff1681526020019081526020015f205490505f811115610fef575f610fbf612283565b9050670de0b6b3a76400008183610fd691906129db565b610fe09190612a49565b83610feb9190612aac565b9250505b5f5b6003805490508110156110ee575f6003828154811061101357611012612bdc565b5b905f5260205f20015f9054906101000a900473ffffffffffffffffffffffffffffffffffffffff1690505f60015f8773ffffffffffffffffffffffffffffffffffffffff1673ffffffffffffffffffffffffffffffffffffffff1681526020019081526020015f205f8373ffffffffffffffffffffffffffffffffffffffff1673ffffffffffffffffffffffffffffffffffffffff1681526020019081526020015f205490505f8111156110d9576110cb8282612476565b856110d69190612aac565b94505b505080806110e690612c09565b915050610ff1565b5050919050565b805f810361112f576040517fcb1d3f7d00000000000000000000000000000000000000000000000000000000815260040160405180910390fd5b611137612224565b8160025f3373ffffffffffffffffffffffffffffffffffffffff1673ffffffffffffffffffffffffffffffffffffffff1681526020019081526020015f205410156111ae576040517f1f38ea1c00000000000000000000000000000000000000000000000000000000815260040160405180910390fd5b5f34036111e7576040517f6b716e9900000000000000000000000000000000000000000000000000000000815260040160405180910390fd5b5f6111f0612283565b90505f81670de0b6b3a76400008561120891906129db565b6112129190612a49565b90505f6064605f8361122491906129db565b61122e9190612a49565b90508034101561126a576040517f6b716e9900000000000000000000000000000000000000000000000000000000815260040160405180910390fd5b8460025f3373ffffffffffffffffffffffffffffffffffffffff1673ffffffffffffffffffffffffffffffffffffffff1681526020019081526020015f205f8282546112b69190612a79565b925050819055505f82346112ca9190612a79565b90505f81111561137e575f3373ffffffffffffffffffffffffffffffffffffffff16826040516112f990612c7d565b5f6040518083038185875af1925050503d805f8114611333576040519150601f19603f3d011682016040523d82523d5f602084013e611338565b606091505b505090508061137c576040517f08c379a000000000000000000000000000000000000000000000000000000000815260040161137390612ceb565b60405180910390fd5b505b611387336121c7565b50505050611393612246565b5050565b731c7d4b196cb0c7b01d743fbc6116a902379c723881565b5f670de0b6b3a7640000905090565b5f6402540be400905090565b5f670de0b6b3a7640000905090565b805f8103611413576040517fcb1d3f7d00000000000000000000000000000000000000000000000000000000815260040160405180910390fd5b61141b612224565b61142733338585611f28565b611430336121c7565b611438612246565b505050565b805f8103611477576040517fcb1d3f7d00000000000000000000000000000000000000000000000000000000815260040160405180910390fd5b825f73ffffffffffffffffffffffffffffffffffffffff165f808373ffffffffffffffffffffffffffffffffffffffff1673ffffffffffffffffffffffffffffffffffffffff1681526020019081526020015f205f9054906101000a900473ffffffffffffffffffffffffffffffffffffffff1673ffffffffffffffffffffffffffffffffffffffff1603611538576040517fa802cfbe00000000000000000000000000000000000000000000000000000000815260040160405180910390fd5b611540612224565b8260015f3373ffffffffffffffffffffffffffffffffffffffff1673ffffffffffffffffffffffffffffffffffffffff1681526020019081526020015f205f8673ffffffffffffffffffffffffffffffffffffffff1673ffffffffffffffffffffffffffffffffffffffff1681526020019081526020015f205f8282546115c79190612aac565b925050819055508373ffffffffffffffffffffffffffffffffffffffff163373ffffffffffffffffffffffffffffffffffffffff167ff1c0dd7e9b98bbff859029005ef89b127af049cd18df1a8d79f0b7e019911e568560405161162b91906126a3565b60405180910390a35f8473ffffffffffffffffffffffffffffffffffffffff166323b872dd3330876040518463ffffffff1660e01b815260040161167193929190612d09565b6020604051808303815f875af115801561168d573d5f803e3d5ffd5b505050506040513d601f19601f820116820180604052508101906116b19190612d73565b9050806116ea576040517f4dc34d1700000000000000000000000000000000000000000000000000000000815260040160405180910390fd5b506116f3612246565b50505050565b5f600a905090565b73fff9976782d46cc05630d1f6ebab18b2324d6b1481565b6060600380548060200260200160405190810160405280929190818152602001828054801561179a57602002820191905f5260205f20905b815f9054906101000a900473ffffffffffffffffffffffffffffffffffffffff1673ffffffffffffffffffffffffffffffffffffffff1681526020019060010190808311611751575b5050505050905090565b5f6117ad612283565b905090565b805f81036117ec576040517fcb1d3f7d00000000000000000000000000000000000000000000000000000000815260040160405180910390fd5b6117f4612224565b8160025f3373ffffffffffffffffffffffffffffffffffffffff1673ffffffffffffffffffffffffffffffffffffffff1681526020019081526020015f205f8282546118409190612aac565b92505081905550611850336121c7565b5f7f000000000000000000000000000000000000000000000000000000000000000073ffffffffffffffffffffffffffffffffffffffff166340c10f1933856040518363ffffffff1660e01b81526004016118ac929190612d9e565b6020604051808303815f875af11580156118c8573d5f803e3d5ffd5b505050506040513d601f19601f820116820180604052508101906118ec9190612d73565b905080611925576040517f30eb0fc900000000000000000000000000000000000000000000000000000000815260040160405180910390fd5b5061192e612246565b5050565b73c532a74256d3db42d0bf7a0400fefdbad769400881565b5f6032905090565b805f810361198c576040517fcb1d3f7d00000000000000000000000000000000000000000000000000000000815260040160405180910390fd5b611994612224565b8160025f3373ffffffffffffffffffffffffffffffffffffffff1673ffffffffffffffffffffffffffffffffffffffff1681526020019081526020015f20541015611a0b576040517f1f38ea1c00000000000000000000000000000000000000000000000000000000815260040160405180910390fd5b5f3403611a44576040517f6b716e9900000000000000000000000000000000000000000000000000000000815260040160405180910390fd5b5f73c532a74256d3db42d0bf7a0400fefdbad769400890505f600267ffffffffffffffff811115611a7857611a77612dc5565b5b604051908082528060200260200182016040528015611aa65781602001602082028036833780820191505090505b50905073fff9976782d46cc05630d1f6ebab18b2324d6b14815f81518110611ad157611ad0612bdc565b5b602002602001019073ffffffffffffffffffffffffffffffffffffffff16908173ffffffffffffffffffffffffffffffffffffffff1681525050731c7d4b196cb0c7b01d743fbc6116a902379c723881600181518110611b3457611b33612bdc565b5b602002602001019073ffffffffffffffffffffffffffffffffffffffff16908173ffffffffffffffffffffffffffffffffffffffff16815250508173ffffffffffffffffffffffffffffffffffffffff1663fb3bdb413486843061012c42611b9c9190612aac565b6040518663ffffffff1660e01b8152600401611bbb9493929190612df2565b5f6040518083038185885af1158015611bd6573d5f803e3d5ffd5b50505050506040513d5f823e3d601f19601f82011682018060405250810190611bff9190612f5f565b50611c0b843333611d72565b5f4790505f811115611cc1575f3373ffffffffffffffffffffffffffffffffffffffff1682604051611c3c90612c7d565b5f6040518083038185875af1925050503d805f8114611c76576040519150601f19603f3d011682016040523d82523d5f602084013e611c7b565b606091505b5050905080611cbf576040517f08c379a0000000000000000000000000000000000000000000000000000000008152600401611cb690612ceb565b60405180910390fd5b505b611cca336121c7565b505050611cd5612246565b5050565b5f611ce48383612476565b905092915050565b5f611cf682612260565b9050919050565b5f808303611d2d577fffffffffffffffffffffffffffffffffffffffffffffffffffffffffffffffff9050611d6c565b5f6064603284611d3d91906129db565b611d479190612a49565b905083670de0b6b3a764000082611d5e91906129db565b611d689190612a49565b9150505b92915050565b8260025f8473ffffffffffffffffffffffffffffffffffffffff1673ffffffffffffffffffffffffffffffffffffffff1681526020019081526020015f205f828254611dbe9190612a79565b925050819055505f7f000000000000000000000000000000000000000000000000000000000000000073ffffffffffffffffffffffffffffffffffffffff166323b872dd8330876040518463ffffffff1660e01b8152600401611e2393929190612d09565b6020604051808303815f875af1158015611e3f573d5f803e3d5ffd5b505050506040513d601f19601f82011682018060405250810190611e639190612d73565b905080611e9c576040517f4dc34d1700000000000000000000000000000000000000000000000000000000815260040160405180910390fd5b7f000000000000000000000000000000000000000000000000000000000000000073ffffffffffffffffffffffffffffffffffffffff166342966c68856040518263ffffffff1660e01b8152600401611ef591906126a3565b5f604051808303815f87803b158015611f0c575f80fd5b505af1158015611f1e573d5f803e3d5ffd5b5050505050505050565b8060015f8673ffffffffffffffffffffffffffffffffffffffff1673ffffffffffffffffffffffffffffffffffffffff1681526020019081526020015f205f8473ffffffffffffffffffffffffffffffffffffffff1673ffffffffffffffffffffffffffffffffffffffff1681526020019081526020015f205f828254611faf9190612a79565b925050819055508173ffffffffffffffffffffffffffffffffffffffff168373ffffffffffffffffffffffffffffffffffffffff168573ffffffffffffffffffffffffffffffffffffffff167fb292db12b8dfa23b760ee5e3bd1d3be184cd8f0eeeacd27ce120d4de4e4721f68460405161202a91906126a3565b60405180910390a45f73ffffffffffffffffffffffffffffffffffffffff168273ffffffffffffffffffffffffffffffffffffffff160361210a575f8373ffffffffffffffffffffffffffffffffffffffff168260405161208a90612c7d565b5f6040518083038185875af1925050503d805f81146120c4576040519150601f19603f3d011682016040523d82523d5f602084013e6120c9565b606091505b5050905080612104576040517f4dc34d1700000000000000000000000000000000000000000000000000000000815260040160405180910390fd5b506121c1565b5f8273ffffffffffffffffffffffffffffffffffffffff1663a9059cbb85846040518363ffffffff1660e01b8152600401612146929190612d9e565b6020604051808303815f875af1158015612162573d5f803e3d5ffd5b505050506040513d601f19601f820116820180604052508101906121869190612d73565b9050806121bf576040517f4dc34d1700000000000000000000000000000000000000000000000000000000815260040160405180910390fd5b505b50505050565b5f6121d182612260565b9050670de0b6b3a764000081101561222057806040517fe580cc6100000000000000000000000000000000000000000000000000000000815260040161221791906126a3565b60405180910390fd5b5050565b61222c612583565b600261223e6122396125c4565b6125ed565b5f0181905550565b60016122586122536125c4565b6125ed565b5f0181905550565b5f805f61226c84612424565b9150915061227a8282611cfd565b92505050919050565b5f805f808073ffffffffffffffffffffffffffffffffffffffff1673ffffffffffffffffffffffffffffffffffffffff1681526020019081526020015f205f9054906101000a900473ffffffffffffffffffffffffffffffffffffffff1690505f73ffffffffffffffffffffffffffffffffffffffff168173ffffffffffffffffffffffffffffffffffffffff1603612351576040517f08c379a000000000000000000000000000000000000000000000000000000000815260040161234890612ff0565b60405180910390fd5b5f8190505f8173ffffffffffffffffffffffffffffffffffffffff1663feaf968c6040518163ffffffff1660e01b815260040160a060405180830381865afa15801561239f573d5f803e3d5ffd5b505050506040513d601f19601f820116820180604052508101906123c39190612b65565b5050509150505f811361240b576040517f08c379a000000000000000000000000000000000000000000000000000000000815260040161240290613058565b60405180910390fd5b6402540be4008161241c91906129db565b935050505090565b5f8060025f8473ffffffffffffffffffffffffffffffffffffffff1673ffffffffffffffffffffffffffffffffffffffff1681526020019081526020015f2054915061246f83610f31565b9050915091565b5f805f808573ffffffffffffffffffffffffffffffffffffffff1673ffffffffffffffffffffffffffffffffffffffff1681526020019081526020015f205f9054906101000a900473ffffffffffffffffffffffffffffffffffffffff1690505f8173ffffffffffffffffffffffffffffffffffffffff1663feaf968c6040518163ffffffff1660e01b815260040160a060405180830381865afa158015612520573d5f803e3d5ffd5b505050506040513d601f19601f820116820180604052508101906125449190612b65565b505050915050670de0b6b3a7640000846402540be4008361256591906129db565b61256f91906129db565b6125799190612a49565b9250505092915050565b61258b6125f6565b156125c2576040517f3ee5aeb500000000000000000000000000000000000000000000000000000000815260040160405180910390fd5b565b5f7f9b779b17422d0df92223018b32b4d1fa46e071723d6817e2486d003becc55f005f1b905090565b5f819050919050565b5f60026126096126046125c4565b6125ed565b5f015414905090565b5f604051905090565b5f80fd5b5f80fd5b5f819050919050565b61263581612623565b811461263f575f80fd5b50565b5f813590506126508161262c565b92915050565b5f806040838503121561266c5761266b61261b565b5b5f61267985828601612642565b925050602061268a85828601612642565b9150509250929050565b61269d81612623565b82525050565b5f6020820190506126b65f830184612694565b92915050565b5f73ffffffffffffffffffffffffffffffffffffffff82169050919050565b5f6126e5826126bc565b9050919050565b6126f5816126db565b81146126ff575f80fd5b50565b5f81359050612710816126ec565b92915050565b5f805f6060848603121561272d5761272c61261b565b5b5f61273a86828701612702565b935050602061274b86828701612642565b925050604061275c86828701612642565b9150509250925092565b5f6020828403121561277b5761277a61261b565b5b5f61278884828501612702565b91505092915050565b61279a816126db565b82525050565b5f6020820190506127b35f830184612791565b92915050565b5f805f606084860312156127d0576127cf61261b565b5b5f6127dd86828701612702565b93505060206127ee86828701612702565b92505060406127ff86828701612642565b9150509250925092565b5f806040838503121561281f5761281e61261b565b5b5f61282c85828601612702565b925050602061283d85828601612702565b9150509250929050565b5f6020828403121561285c5761285b61261b565b5b5f61286984828501612642565b91505092915050565b5f80604083850312156128885761288761261b565b5b5f61289585828601612702565b92505060206128a685828601612642565b9150509250929050565b5f6040820190506128c35f830185612694565b6128d06020830184612694565b9392505050565b5f81519050919050565b5f82825260208201905092915050565b5f819050602082019050919050565b612909816126db565b82525050565b5f61291a8383612900565b60208301905092915050565b5f602082019050919050565b5f61293c826128d7565b61294681856128e1565b9350612951836128f1565b805f5b83811015612981578151612968888261290f565b975061297383612926565b925050600181019050612954565b5085935050505092915050565b5f6020820190508181035f8301526129a68184612932565b905092915050565b7f4e487b71000000000000000000000000000000000000000000000000000000005f52601160045260245ffd5b5f6129e582612623565b91506129f083612623565b92508282026129fe81612623565b91508282048414831517612a1557612a146129ae565b5b5092915050565b7f4e487b71000000000000000000000000000000000000000000000000000000005f52601260045260245ffd5b5f612a5382612623565b9150612a5e83612623565b925082612a6e57612a6d612a1c565b5b828204905092915050565b5f612a8382612623565b9150612a8e83612623565b9250828203905081811115612aa657612aa56129ae565b5b92915050565b5f612ab682612623565b9150612ac183612623565b9250828201905080821115612ad957612ad86129ae565b5b92915050565b5f69ffffffffffffffffffff82169050919050565b612afd81612adf565b8114612b07575f80fd5b50565b5f81519050612b1881612af4565b92915050565b5f819050919050565b612b3081612b1e565b8114612b3a575f80fd5b50565b5f81519050612b4b81612b27565b92915050565b5f81519050612b5f8161262c565b92915050565b5f805f805f60a08688031215612b7e57612b7d61261b565b5b5f612b8b88828901612b0a565b9550506020612b9c88828901612b3d565b9450506040612bad88828901612b51565b9350506060612bbe88828901612b51565b9250506080612bcf88828901612b0a565b9150509295509295909350565b7f4e487b71000000000000000000000000000000000000000000000000000000005f52603260045260245ffd5b5f612c1382612623565b91507fffffffffffffffffffffffffffffffffffffffffffffffffffffffffffffffff8203612c4557612c446129ae565b5b600182019050919050565b5f81905092915050565b50565b5f612c685f83612c50565b9150612c7382612c5a565b5f82019050919050565b5f612c8782612c5d565b9150819050919050565b5f82825260208201905092915050565b7f45544820726566756e64206661696c65640000000000000000000000000000005f82015250565b5f612cd5601183612c91565b9150612ce082612ca1565b602082019050919050565b5f6020820190508181035f830152612d0281612cc9565b9050919050565b5f606082019050612d1c5f830186612791565b612d296020830185612791565b612d366040830184612694565b949350505050565b5f8115159050919050565b612d5281612d3e565b8114612d5c575f80fd5b50565b5f81519050612d6d81612d49565b92915050565b5f60208284031215612d8857612d8761261b565b5b5f612d9584828501612d5f565b91505092915050565b5f604082019050612db15f830185612791565b612dbe6020830184612694565b9392505050565b7f4e487b71000000000000000000000000000000000000000000000000000000005f52604160045260245ffd5b5f608082019050612e055f830187612694565b8181036020830152612e178186612932565b9050612e266040830185612791565b612e336060830184612694565b95945050505050565b5f80fd5b5f601f19601f8301169050919050565b612e5982612e40565b810181811067ffffffffffffffff82111715612e7857612e77612dc5565b5b80604052505050565b5f612e8a612612565b9050612e968282612e50565b919050565b5f67ffffffffffffffff821115612eb557612eb4612dc5565b5b602082029050602081019050919050565b5f80fd5b5f612edc612ed784612e9b565b612e81565b90508083825260208201905060208402830185811115612eff57612efe612ec6565b5b835b81811015612f285780612f148882612b51565b845260208401935050602081019050612f01565b5050509392505050565b5f82601f830112612f4657612f45612e3c565b5b8151612f56848260208601612eca565b91505092915050565b5f60208284031215612f7457612f7361261b565b5b5f82015167ffffffffffffffff811115612f9157612f9061261f565b5b612f9d84828501612f32565b91505092915050565b7f4e6f2045544820707269636520666565640000000000000000000000000000005f82015250565b5f612fda601183612c91565b9150612fe582612fa6565b602082019050919050565b5f6020820190508181035f83015261300781612fce565b9050919050565b7f496e76616c6964207072696365000000000000000000000000000000000000005f82015250565b5f613042600d83612c91565b915061304d8261300e565b602082019050919050565b5f6020820190508181035f83015261306f81613036565b905091905056fea26469706673582212203cd13729a2ac1983914f0081a0cca8fbad8c784e2f2d83dc06f25556497bd90f64736f6c63430008140033",
        "linkReferences": {}
    },
    "methodIdentifiers": {
        "UNISWAP_ROUTER()": "d8264920",
        "USDC()": "89a30271",
        "WETH()": "ad5c4648",
        "burnDSC(uint256)": "4c1697b1",
        "calculateHealthFactor(uint256,uint256)": "01f72884",
        "depositCollateral(address,uint256)": "a5d5db0c",
        "depositCollateralAndMintDSC(address,uint256,uint256)": "2575a367",
        "depositETHOnly()": "22b72c1b",
        "getAccountCollateralValue(address)": "7d1a4450",
        "getAccountInfo(address)": "7b510fe8",
        "getAccountInformation(address)": "7be564fc",
        "getAdditionalFeedPrecision()": "8f63d667",
        "getCollateralBalanceOfUser(address,address)": "31e92b83",
        "getCollateralTokenPriceFeed(address)": "1c08adda",
        "getCollateralTokens()": "b58eb63f",
        "getDSC()": "26d62dff",
        "getETHPriceInUSD()": "b62e3c5a",
        "getETHRequiredForDSCRepayment(uint256)": "3407f7bc",
        "getHealthFactor(address)": "fe6bcd7c",
        "getMaxMintableAmount(address)": "208a5905",
        "getMinHealthFactor()": "8c1ae6c8",
        "getPrecision()": "9670c0bc",
        "getTokenAmountFromUSD(address,uint256)": "638ca89c",
        "getUSDValue(address,uint256)": "fa76dcf2",
        "getliquidationBonus()": "a82f713f",
        "getliquidationPercision()": "2a422597",
        "getliquidationThershold()": "d8e42fc3",
        "liquidate(address,address,uint256)": "26c01303",
        "mintDSC(uint256)": "d0bb6c6e",
        "redeemCollateral(address,uint256)": "9acd81b3",
        "redeemCollateralForDSC(address,uint256,uint256)": "0ebf956d",
        "repayDSCWithETH(uint256)": "dd1e8647",
        "repayDSCWithETHDirect(uint256)": "8207c548"
    },
    "id": 31
}